:100000000C949D040C94BA040C94BA040C94BA0495
:100010000C940A0F0C94BA040C94BA040C94BA040D
:100020000C94BA040C94BA040C94BA040C94BA0458
:100030000C94BA040C94BA040C94BA040C94BA0448
:100040000C94D30E0C94BA040C947D0F0C94BC0F3A
:100050000C94BA040C94BA040C94BA040C94BA0428
:100060000C94BA040C94BA04EC0CF20CF20CF80CDC
:10007000FE0CDA0CFE0CE00CE60C491141114111AA
:1000800041114111411141114111411141114111E0
:1000900041114111411141114111411141114111D0
:1000A00041114111411141114111411141114111C0
:1000B00041114111411141114111411141114111B0
:1000C00041114111411141114111411141114111A0
:1000D00041114111411141114111411141117C1254
:1000E0004111411141110712CF114111411141112B
:1000F0009D11BF1241114111B51241114111DC1284
:10010000851241111113FB12611246160F16871644
:100110009E13FB1457136616241352135213D6144E
:100120005C14991A791A791A791A791A921A921A08
:10013000B91AB21AC01A731A851CB21A7E1C4C174F
:10014000831AAD13AE1A281EDF1DDF1DBA1DA51DB3
:10015000BA1DA51D761D061E3C475049423E200093
:100160004E4F204D4158004E4F204D494E004D32CC
:1001700030206661696C65640D0A004D32300020E4
:10018000202020203E33205600726561643A2063AF
:10019000616E277420756E74616C6B0D0A00726558
:1001A00061643A2063616E277420726563656976C5
:1001B000650D0A00726561643A2063616E277420E0
:1001C0006C697374656E0D0A00420020204F564C16
:1001D000442020474F484D0020204F50454E003FBF
:1001E0003F3F0041434100414443004F484D0056CA
:1001F0004143005644430043202000562020004D38
:1002000032315431004D32315431004D32310052CF
:10021000334D3231004D32310046374D32310020FE
:100220003E313030204F484D0052324E334D323146
:100230005A30004B4D3230004D3230004D323400D8
:1002400041004D3A2054454D50004D3A2044494F0D
:100250004445004D3A204155544F484F4C44004DC1
:100260003A20584F484D004D3A20434F4E54004DD0
:100270003A204D494E4D4158004D3A204D494E4D82
:100280004158004D3231004B4D3230443100203E58
:10029000313030204F484D004431004B004B004D71
:1002A00032304431006D656E753A2069646C650DBD
:1002B0000A006D656E753A2074656D700D0A006DEB
:1002C000656E753A2064696F64650D0A006D656E30
:1002D000753A206175746F686F6C640D0A006D6506
:1002E0006E753A206D696E6D61780D0A006D656EF0
:1002F000753A20786F686D0D0A006D656E753A204D
:100300006572726F720D0A006D656E753A20756EBA
:100310006B6E6F776E0D0A0069646C653A20756EBE
:10032000657870656374656420657620257820257E
:10033000780D0A004B00696E69743A206F6B0D0AE4
:10034000004B4D3230004B4D323044310069646C0B
:10035000653A206D656E7520696E69742066616905
:100360006C65640D0A004D3231004B0069646C65A8
:100370003A206765742072656164696E6720666102
:10038000696C65640D0A004B4D32304431543100C4
:100390004D30304431004D303044315431004F4BFA
:1003A0000D0A004552524F520D0A004552524F520B
:1003B0000D0A0025750D0A0057524F4E47204F5029
:1003C00054494F4E0D0A004F4B0D0A004552524FF3
:1003D000520D0A0057524F4E4720434F4D4D414E4C
:1003E000440D0A004552524F520D0A000D0A0025D5
:1003F0003032580054494D454F55542025640D0A5C
:10040000004F4B0D0A004552524F520D0A00455203
:10041000524F520D0A0025643A2025730D0A004FF1
:100420004B0D0A004F4B0D0A004F4B0D0A0054496B
:100430004D454F55542025640D0A004F4B0D0A00C1
:1004400054494D454F55542025640D0A004F4B0D1E
:100450000A000D0A00580000000000000000000023
:100460000000000000010000000031010A00490006
:10047000000000000000000000000000000001007B
:1004800001000030010900430000000000000000EE
:10049000000000000000001E0015000036030800E8
:1004A0004400000000000000000000000000000008
:1004B0001F00170000350307005200000000000075
:1004C00000000000000000000007000400003703E7
:1004D00005005400000000000000000000000000C3
:1004E0000000070004000038030400420000000080
:1004F00000000000000000000000000400000000F8
:100500002F01030062757A7A5F706572696F64000B
:1005100000000000FEFF1027012D01010062757A26
:100520007A5F64757479000000000000007F000F9E
:1005300000002C0100000D0A4F3C6F70743E2053E8
:10054000686F772063757272656E742076616C7562
:10055000650D0A4F3C6F70743E3C76616C3E2053D3
:100560006574206F7074696F6E2076616C75650DAF
:100570000A4F3C6F70743E3C76616C3E7720536549
:1005800074206F7074696F6E2076616C7565206180
:100590006E6420777269746520746F2045455052EF
:1005A0004F4D0D0A3C6F70743E3A0D0A20204920D1
:1005B000496E746572616374697665206D6F6465F8
:1005C000202830206F66662C2031206F6E290D0A9E
:1005D00020204320436F6E76657274657220475009
:1005E000494220616464726573730D0A20204420BF
:1005F00048503334373841204750494220616464C1
:10060000726573730D0A202054205472616E736DED
:10061000697420656E64206F66206C696E652A0DB2
:100620000A202052205265636569766520656E64F4
:10063000206F66206C696E652A0D0A2020582048BC
:1006400050333437384120657874656E73696F6E46
:10065000206D6F6465202830206F66662C20312065
:100660006F6E290D0A20204220426175642072615C
:1006700074652028303D3131353230302C20323D08
:100680003530304B290D0A2020302053657420640A
:10069000656661756C747320666F7220696E74652F
:1006A00072616374697665206F7065726174696FD9
:1006B0006E0D0A20203120536574206465666175D3
:1006C0006C747320666F72206E6F6E20696E746535
:1006D000726163746976650D0A0D0A2A204F5265AE
:1006E0006420626974733A20343D454F492C2032AE
:1006F0003D3C4C463E2C20313D3C43523E0D0A0DC4
:100700000A000D0A68703334373865787420475012
:1007100049422D5541525420636F6E76657274655F
:10072000720D0A5472616E736D697373696F6E2016
:10073000636F6D6D616E64730D0A2020432020533A
:10074000656E6420415343494920636F6D6D616E4E
:10075000640D0A202044202053656E642F72656367
:100760006569766520415343494920646174610D90
:100770000A20205448432053656E64204845582081
:10078000636F6D6D616E640D0A20205448442053E0
:10079000656E642A2F726563656976652A2A20482A
:1007A000455820646174610D0A202054424420534E
:1007B000656E642F726563656976652A20484558C1
:1007C00020646174610D0A20205020436F6E7469AB
:1007D0006E6F757320726561642028706C6F74741D
:1007E0006572206D6F6465292C203C4553433E2083
:1007F000746F20657869740D0A4750494220636F11
:100800006E74726F6C0D0A20205220536574205252
:10081000454D4F5445206D6F6465202852454E204C
:1008200074727565290D0A20204C20536574204C84
:100830004F43414C206D6F6465202852454E206621
:10084000616C7365290D0A2020492047656E657229
:10085000617465204946432070756C73650D0A4FBD
:100860007468657220636F6D6D616E64730D0A202C
:100870002053204765742052454E2F5352512F4C20
:10088000495354454E2073746174652028312069A2
:10089000662074727565290D0A20204F2047657403
:1008A0002F73657420616E206F7074696F6E2028DD
:1008B0004F3F20666F72206C697374290D0A2020E7
:1008C0004820436F6D6D616E6420686973746F7248
:1008D000790D0A0D0A2A20416464203B20617420AE
:1008E00074686520656E6420746F2064697361624A
:1008F0006C6520454F490D0A2A2A20596F752063DF
:10090000616E2073706563696679206C656E6774CB
:100910006820696E2068657820616674657220744D
:10092000686520636F6D6D616E642028757020743A
:100930006F203766290D0A0D0A0011241FBECFEF64
:10094000D8E0DEBFCDBF11E0A0E0B1E0E4E6FEE418
:1009500002C005900D92AA30B107D9F723E0AAE0B2
:10096000B1E001C01D92A03DB207E1F70E94351031
:100970000C9430270C940000CF93662339F1782F24
:10098000FC01C1E0A2E0B0E013C090E0209136038A
:1009900030E0A901405C5F4F8417950761F0205E4D
:1009A0003F4F82179307A1F08E2F871B861770F495
:1009B00081918F3351F7109239032D9810923301A2
:1009C000109232018E2F871B861790F3CF910895D6
:1009D000C0933903B0933301A0933201E5CFCF9296
:1009E000DF92EF92FF920F931F93CF93FC01DB01F5
:1009F000C080D180E280F3804D915D916D917C91BA
:100A00001397C5818481C80F15969C9115971496EC
:100A10008C91980FF7FC78C077FD7AC0C9170CF459
:100A200040C0892F9C2FC82FE42F352F262F872FCA
:100A3000B701A601CE2ED32EE22EF82E81E077FD4F
:100A400033C0C416D506E606F706DCF422C08A01D8
:100A50009B01000F111F221F331FB901A801440F72
:100A6000551F661F771F440F551F661F771F400FC6
:100A7000511F621F731F9150C416D506E606F70674
:100A800044F09C13E4CF4C155D056E057F0599F18C
:100A90008195CF911F910F91FF90EF90DF90CF90B4
:100AA00008958FEF77FFCDCF4C155D056E057F055F
:100AB000DCF4EECF8A019B01000F111F221F331FB0
:100AC000B901A801440F551F661F771F440F551F1A
:100AD000661F771F400F511F621F731F91504C15E7
:100AE0005D056E057F05A4F29C13E4CF4C155D05F2
:100AF0006E057F0571F680E0CF911F910F91FF90F9
:100B0000EF90DF90CF90089577FD88CF8FEFC1CF22
:100B100081E0BFCF0E94F20F80E090E00895FF9245
:100B20000F931F93CF93DF93CDB7DEB769970FB6BF
:100B3000F894DEBF0FBECDBFF82E05E514E00CC063
:100B40002B893C89EE89FF8931832083075E1F4F03
:100B500085E006331807A1F049E150E0B801CE0165
:100B600001960E944C229D8990FDEACFEE89FF8973
:100B70009B899083075E1F4F85E00633180761F756
:100B800091E0F11090E09093300169960FB6F894DF
:100B9000DEBF0FBECDBFDF91CF911F910F91FF90B0
:100BA0000895CF92DF92EF92FF920F931F93CF930E
:100BB000DF9300D0CDB7DEB7182F6B0180910D0108
:100BC000823009F4E1C0833009F47DC0882369F1E3
:100BD0001A3009F467C01B30D0F11B3109F47BC116
:100BE0001F3709F4F8C01D30B9F58091300181112B
:100BF000F5C110910B01112309F4ADC1F6018081FB
:100C000090E049835A830E944422F82E49815A81F8
:100C1000FA01108380913001882319F0F8E4FF1263
:100C200029C110920D018F2D43C080913001811197
:100C3000B2C010920C0110920B018091340180938C
:100C40000A0181E080930D011A3029F62BC011238F
:100C500049F1183009F4BFC040910B014F3311F135
:100C600020910C0130E050E0421B530BB601620FA3
:100C7000731FC90101968C0D9D1D0E946C228091ED
:100C80000C0191E0980F90930C01F601E80FF11D13
:100C9000108380910B018F5F80930B018091300155
:100CA000811177C180910D01843009F4E2C080E0A8
:100CB0000F900F90DF91CF911F910F91FF90EF90C8
:100CC000DF90CF900895133409F472C008F00EC17C
:100CD000113408F454C0113409F443C18091340133
:100CE00060910A01262F30E0882309F482C19927F8
:100CF00087FD9095AC01415051092417350709F43F
:100D000083C12F5F3F4F281739070CF475C100E0EE
:100D100020910B0180910C01821760F480E20E9407
:100D2000F20F90910C019F5F90930C0120910B01A9
:100D30009217A0F38FEF820F80930B01222389F08B
:100D400088E00E94F20F80E20E94F20F88E00E9489
:100D5000F20F90910B012FEF290F20930B019111AE
:100D6000EFCF002341F0102FF60181916F010E9417
:100D7000F20F1150C9F700930B0100930C0181E0B1
:100D800080930D0180E094CF1B35C9F783E08093F9
:100D90000D0180E08DCF28E531E03F932F9349830B
:100DA0005A830E94DB220F900F905A81498141CFD4
:100DB00080910C0190910B01891708F78F5F809348
:100DC0000C018BE10E94F20F8BE50E94F20F83E48D
:100DD0000E94F20FD4CF80913001882309F462CFB2
:100DE00080910C01882309F45DCF40910B014150A3
:100DF00040930B01815080930C0190E050E0481B20
:100E0000590BBC016F5F7F4F6C0D7D1D8C0D9D1DBF
:100E10000E946C2288E00E94F20F10910C018091D8
:100E20000B01181758F4F601E10FF11D80810E94A3
:100E3000F20F1F5F80910B011817A8F380E20E9448
:100E4000F20F10910C01212F30E080910B0190E006
:100E5000821793070CF426CF88E00E94F20F1F5FE1
:100E600020910B0130E0812F90E028173907A4F77B
:100E700019CFF12C10920D01E0903401EE2009F40D
:100E80004AC00E2D112707FD1095C8010024969524
:100E900087950794969587950794982F802DB6018E
:100EA0008B509F4F0E947E22892B09F4BCCEF8E024
:100EB000EF1233C040EC51E065E771E085E391E06B
:100EC0000E946C22009134010150009334011127DB
:100ED00007FD109522C080913001882309F4E2CEED
:100EE00082E080930D01F12C8F2DE2CE143409F0B5
:100EF00046CF80910C01882309F441CF8150809323
:100F00000C018BE10E94F20F8BE50E94F20F84E44A
:100F10000E94F20F34CF00E010E080910B01F60147
:100F2000E80FF11D1082C80100249695879507945B
:100F3000969587950794982F802D40E450E0B60150
:100F40008B5C9E4F0E946C22809134018F5F809356
:100F500034018F2DADCE10920D013DE0F32E8F2D7B
:100F6000A7CE60910A01662309F409CF615060930E
:100F70000A0180E4689FB00111246B5C7E4F40E45D
:100F800050E0C6010E946C22C6010E948722082FF1
:100F9000BFCE812F0E94F20F90910B0180910C0126
:100FA000F92EF81A8601080F111DFF2091F1F801A2
:100FB00081918F010E94F20FFA94C9F790910B0171
:100FC00010910C01191708F06DCE88E00E94F20F05
:100FD0001F5F80910B011817C0F364CE8DE0498329
:100FE0005A830E94F20F8AE00E94F20F5A814981CF
:100FF00000CE80E090E085CE6F5F60930A01E0E470
:101000006E9FB0011124B9CF6F5F60930A0100E0B9
:101010007FCE182FD7CF2AB1982F990F990F237011
:10102000922B9AB986FF05C0209A87FD05C02198AA
:101030000895209887FFFBCF219A08958AB1837085
:101040008AB984B18C7F84B92C9A389A399A0895D8
:10105000CF93DF93A0E0C22FC470D22FD170227043
:101060003898E091C203F091C3033E2F07C0E0918E
:10107000C203F091C303E31BE93C50F51C99F7CF81
:10108000389A1B9B2CC0B0E079B17695769518996B
:1010900070641999706870953998AF5FFC0171930D
:1010A000CF017A3039F17D3041F428C0E091C2039C
:1010B000F091C303E31BE93CB0F41C9BF7CF399AD2
:1010C000A61700F5BB2361F2FA01A0838B2F04C0A1
:1010D000FA01A083389A80E0DF91CF910895CC2364
:1010E00091F2B4E0D1CFFA01A083399A80E0DF9188
:1010F000CF910895222309F3B260DFCFDD23E9F217
:10110000B160DBCFFA01A083B111E0CF88E0E4CF7A
:101110004F925F927F928F929F92AF92BF92CF92A7
:10112000DF92EF92FF920F931F93CF93DF931F9263
:10113000CDB7DEB77C01862E309B02C031998CC0C2
:10114000842F8270A82E41FD839440FD74C08820B6
:1011500009F484C0942F9370412C512C282D30E039
:101160004470942E4AE0B42E89010150110969019E
:10117000E2E0CE1AD108742C933009F464C09130A7
:1011800009F45BC0A11049C0F701E40DF51D808191
:1011900099830E940B0899814016510609F446C0B4
:1011A0008B2D8A95F1F72091C2033091C303422F12
:1011B00007C02091C2033091C303241B293CA0F433
:1011C000309BF7CF249A07C02091C2033091C3030C
:1011D000241B293CF0F5319BF7CF24987394FFEF43
:1011E0004F1A5F0A481438F223988AB183708AB97B
:1011F00084B18C7F84B9872D0F90DF91CF911F919F
:101200000F91FF90EF90DF90CF90BF90AF909F90A5
:101210008F907F905F904F9008950415150509F009
:10122000B3CF8AE099830E940B089981992009F431
:10123000B7CF239AB5CF83948ACF4016510609F0D1
:10124000A3CF8DE0EFCF4C145D0409F09BCF8DE070
:101250009FCF23982498C9CF80E0CECF712CC4CFE4
:10126000CF9341FF0CC0C1E0C60F40FDCF5F0E948D
:10127000880891E08C1390E0892FCF910895C62FB4
:10128000F4CFEF92FF920F931F93CF93DF9300D091
:10129000CDB7DEB78C01E62EF42E809139033D9A4E
:1012A000823029F18130B9F180913503805E8983E4
:1012B00080913603805C8A833C9A82E08A95F1F7BC
:1012C00040E062E0CE0101960E94300981110EC01B
:1012D0003C983D981092390380E00F900F90DF9179
:1012E000CF911F910F91FF90EF9008953C98F4FCDF
:1012F00010C042E06E2DC8010E943009882341F3DE
:10130000F2FE3D98F1FE0BC082E08093390381E04C
:10131000E4CF40E0EFCF2C9838983998C5CF8FE3D1
:1013200089833C9A82E08A95F1F740E061E0CE0142
:1013300001960E943009882359F23C981092390393
:1013400081E0CBCFCF93DF9300D000D000D0CDB7DA
:10135000DEB78091BF039091C00310922B011092D1
:101360008100109280002A9822E5298391FF20C0F5
:1013700021E42A832EE42B838370823021F1833091
:1013800071F1813049F18AE58D8392FD22C080E3BD
:101390008E8340E066E0CE0101960E9441092696C8
:1013A0000FB6F894DEBF0FBECDBFDF91CF91089589
:1013B000282F2C7126952695205D2A832EE42B83D9
:1013C00083708230E1F684E38C838AE58D8392FF1B
:1013D000DECF81E38E83DDCF85E38C83D4CF83E3BF
:1013E0008C83D1CF2F923F924F925F926F927F92D8
:1013F0008F929F92AF92BF92CF92DF92EF92FF9225
:101400000F931F93CF93DF93CDB7DEB766970FB6D9
:10141000F894DEBF0FBECDBF5C016D8B242E2E8BEA
:10142000FC01F581FC8BF93009F4F4C0FC01C080AB
:10143000D180E280F380F7FC4FC18D8980768032C5
:1014400009F4BCC080E28983F5018480912CF2E02C
:101450008F0E911C1D89137067E0362E7AE0472E9F
:10146000512C612C712C032DC88AD98AEA8AFB8AF7
:101470006401922C07C001501016CCF5288B398BD3
:101480004A8B5B8B113031F0073009F49DC013306B
:1014900009F497C0E02EFF24E7FCF0942224239463
:1014A000312C2C0E3D1E2E0C3F1C688979898A89AF
:1014B0009B89A30192010E94121F605DF10160836C
:1014C000688979898A899B89A30192010E94121FE8
:1014D000EC14FD0481F60150E1E0F0E0EC0FFD1F9B
:1014E000E00FF11D8EE28083015010163CF2292C92
:1014F000F5012083318342835383FC89F33009F45F
:10150000CCC00CF0E1C0FD3F09F472C0F11109C17B
:1015100080E2211071C090E299878A878AE090E08A
:101520002D89207E203609F407C108F4F2C0203A44
:1015300009F4F9C0203C09F4FCC0203809F4FCC0CF
:101540006FED71E043E050E0E1E0F0E0EC0FFD1FF3
:101550008E0F9F1F0E944C22222031F0F0E6F215E0
:101560000CF456C0822D8D8784E48E872E8923FF4C
:10157000A9C083E38F8747E162E0CE010E960E9407
:10158000410981118CC090E0892F66960FB6F894BE
:10159000DEBF0FBECDBFDF91CF911F910F91FF90A6
:1015A000EF90DF90CF90BF90AF909F908F907F9003
:1015B0006F905F904F903F902F9008958BE28983BA
:1015C00043CF063009F066CFE02EFF24E7FCF0940D
:1015D000E1E0F0E0EC0FFD1FEE0DFF1D20E22083A7
:1015E0006FCF883229F0843419F0843209F090CF1B
:1015F0008DE4222009F48FCF898734E623127CC042
:1016000043E050E06BEF71E0CE010A960E944C225D
:1016100080E2A9CFFC01C080D180E280F380FCEDA4
:10162000CF16F1E4DF06FFE0EF06F1040CF403CF80
:10163000862F8C7F883789F008F481C0803909F4BF
:1016400088C008F4A5C08C3909F483C008F4C5C06B
:10165000883A19F0883C09F091C090E299839A8306
:101660009EE29B839FE49C8396E59D839CE49E83FE
:1016700094E49F8390E298878C3709F4B9CF08F0FF
:101680008FC08C3651F008F4ACCF843731F08837F6
:1016900009F4AECF803709F03BCF8BE43ACF47E077
:1016A0006DE0CE0101960E944109882309F46BCFB9
:1016B0004E8960E080E090E00E94410991E0811154
:1016C00063CF61CF82E356CF2C89263009F490CFC7
:1016D000293039F587E41DCF8DE28983F094E094B9
:1016E000D094C094C11CD11CE11CF11CF501C08236
:1016F000D182E282F382A8CE83E628126BC043E057
:1017000050E067EF71E0CE010A960E944C2280E221
:101710002ACF203259F0203409F012CF6FEE71E059
:1017200011CF8FE3F6CE67EE71E00CCF63EF71E07F
:1017300009CF63EE71E006CF6BEE71E003CF8C341E
:1017400041F0A8F08C3609F488CF803711F0843648
:10175000A9F490E299839A839FE49B839EE29C8301
:1017600096E59D839CE49E8394E49F8383CF8C3293
:1017700009F473CF803369F3843259F390E299838B
:101780009A839FE49B8396E59C839EE29D836ECF24
:101790008438F9F28C3809F460CF8C3779F7D9CFD7
:1017A000883909F425CF58F4803909F476CF843983
:1017B00009F473CF8C3809F0ABCE8BE4AACE843A0F
:1017C00009F416CF843C09F413CF8C3909F0A0CE6C
:1017D0008DE40FCF89E090E0A3CE883909F43DCFA6
:1017E000CDCF9F92AF92BF92CF92DF92EF92FF92B6
:1017F0000F931F93CF93DF9300D0CDB7DEB76C016B
:10180000B62E809139033D9A823059F1813009F426
:1018100075C080913503805E898380913603805C3A
:101820008A833C9A82E08A95F1F740E062E0CE013B
:1018300001960E943009811113C03C983D98109286
:10184000390380E00F900F90DF91CF911F910F919E
:10185000FF90EF90DF90CF90BF90AF909F90089552
:101860003C98C6010E945522309943C09924939414
:10187000980EA9F1E92CF12C81E0E81AF10800E0BA
:1018800010E0EAE0AE2E0E151F0509F43BC0F6018C
:10189000E00FF11F84910E940B089A2D9A95F1F7A1
:1018A0002091C2033091C303922F07C02091C2033D
:1018B0003091C303291B293CF8F4309BF7CF249ABD
:1018C00007C02091C2033091C303291B293CE0F4D7
:1018D000319BF7CF24980F5F1F4F0915A0F2239873
:1018E000B2FE3D98B1FE13C082E08093390381E0DF
:1018F000A9CF319BBBCFA1CF23989FCF2C983898ED
:10190000399887CF8AE0C7CF2398249896CF8FE362
:1019100089833C9A82E08A95F1F740E061E0CE014C
:1019200001960E943009882309F487CF3C981092D1
:10193000390381E087CFFF920F931F93CF93DF93FB
:1019400000D0CDB7DEB78C01F62E84E4898363FF27
:1019500014C083E38A8347E162E0CE0101960E94CE
:10196000410981110CC090E0892F0F900F90DF91F9
:10197000CF911F910F91FF90089582E3EBCF67E025
:10198000C8010E94F10B882371F34F2D60E080E0C5
:1019900090E00E94410991E08111E6CFE4CF482F09
:1019A00050E0FA013597E930F10530F4EC5CFF4F77
:1019B0000C94311F29E732E06FE0C9010C949B0CB5
:1019C00022E432E06FE0C9010C949B0C2AE432E07F
:1019D0006FE0C9010C949B0C2FE532E06FE0C90168
:1019E0000C949B0C27E632E06FE0C9010C949B0C31
:1019F0002FE632E06FE0C9010C949B0C23E532E046
:101A00006FE0C9010C949B0C0F931F93CF93DF934E
:101A100000D000D0CDB7DEB78C0180913903813082
:101A200009F44AC01092390388E189838091350313
:101A3000805C8A8380913603805E8B833C9A82E04F
:101A40008A95F1F740E063E0CE0101960E943009EB
:101A500081110EC02C98389839983C9880E00F90EE
:101A60000F900F900F90DF91CF911F910F910895DC
:101A70003C980E941E0820E0AE014C5F5F4F61E081
:101A8000C8010E9428088C81813021F72C98389851
:101A900039983C9A82E08A95F1F789E189838FE54C
:101AA0008A8340E062E0CE0101960E9430098823DB
:101AB00089F23C9881E0D3CF2C9838983998B2CFEE
:101AC000CF92DF92EF92FF920F931F93CF93DF930A
:101AD00000D0CDB7DEB78C01D62E7A01C22E809110
:101AE0003903813089F180913603805E898380914A
:101AF0003503805C8A833C9A82E08A95F1F740E066
:101B000062E0CE0101960E94300981111AC084EB77
:101B100091E09F938F930E94DB220F900F902C985F
:101B2000389839983C981092390380E00F900F90C4
:101B3000DF91CF911F910F91FF90EF90DF90CF90A9
:101B400008953C980E941E0824E0A7016D2DC8014D
:101B50000E942808843049F08EE991E09F938F938A
:101B60000E94DB220F900F90DACFC0FE04C081E00C
:101B700080933903DBCF2C98389839983C9A82E0CF
:101B80008A95F1F78FE5898340E061E0CE01019607
:101B90000E943009882329F03C981092390381E093
:101BA000C5CF89E891E09F938F930E94DB220F902D
:101BB0000F90B5CF0F931F93CF93DF931F92CDB7A5
:101BC000DEB78C0162E089EC91E00E94F10B81119B
:101BD00007C080E00F90DF91CF911F910F91089582
:101BE00020E0AE014F5F5F4F65E0C8010E94600DCD
:101BF000882379F381E09981953059F7EBCFCF9322
:101C0000DF9300D000D01F92CDB7DEB71092100145
:101C1000CE0101960E94DA0D81110AC090E0892F51
:101C20000F900F900F900F900F90DF91CF9108952C
:101C300089818093BF038A818093C00360E085E03F
:101C400092E00E94F10B91E08111E9CFE7CFBF92C2
:101C5000CF92DF92EF92FF920F931F93CF93DF9378
:101C6000CDB7DEB72E970FB6F894DEBF0FBECDBF4F
:101C70007C01262FAE01425F5F4F6DE0CE010196E1
:101C80000E94600D882309F469C0B980CE8481E088
:101C90008C1508F080C08A81853409F47CC0FE016F
:101CA0003396DD24D39440E050E0BA0124C08A0189
:101CB0009B01000F111F221F331FB901A801440F00
:101CC000551F661F771F440F551F661F771F400F54
:101CD000511F621F731F90E0C097AA2797FDA09520
:101CE000BA2F480F591F6A1F7B1FD394DC1469F069
:101CF0008191853451F08E32D1F68FEF8D0DD70161
:101D000014968C93D394DC10F3CF21E02D0D30E0AA
:101D10008C2D90E0821B930B029704F1BDE2BB1661
:101D200071F1F7014083518362837383D394D39419
:101D3000E1E0F0E0EC0FFD1FE20FF31F8081E1E036
:101D4000F0E0EC0FFD1FED0DF11D8D3201F18081F2
:101D50008053D70115968C9381E001C080E02E96C8
:101D60000FB6F894DEBF0FBECDBFDF91CF911F91AC
:101D70000F91FF90EF90DF90CF90BF9008957095F6
:101D80006095509541955F4F6F4F7F4FCACF80E36D
:101D90009081891BDECF22E030E0DD24D39440E047
:101DA00050E0BA01B5CF1F920F920FB60F921124D7
:101DB0002F933F938F939F93209132018091C20381
:101DC0009091C30301969093C3038093C20322238F
:101DD000A9F080910E0190910F01019690930F014F
:101DE00080930E01213099F024E630E082179307AA
:101DF00028F010920F0110920E011D9A9F918F9161
:101E00003F912F910F900FBE0F901F90189524EFC8
:101E100031E0ECCF1F920F920FB60F9211242F9347
:101E20003F934F938F939F9326B1269526952695A2
:101E300041E02427822F817090E02091C4033091EB
:101E4000C5038217930731F04093C1039093C503F4
:101E50008093C4039F918F914F913F912F910F9049
:101E60000FBE0F901F901895833001F18430C9F098
:101E7000823081F080E190E09093C5008093C400AF
:101E800082E08093C00086E08093C20088EB80935C
:101E9000C100089583E090E09093C5008093C40052
:101EA000EFCF1092C5001092C400EACF81E090E01D
:101EB0009093C5008093C400E3CF8330B9F08430A1
:101EC00081F0823039F080E190E09093C5008093FA
:101ED000C400089583E090E09093C5008093C4000F
:101EE00008951092C5001092C400089581E090E01A
:101EF0009093C5008093C40008951F920F920FB66F
:101F00000F9211242F938F939F93EF93FF938091C0
:101F1000C00084FD1EC09091C6009B3119F1E09174
:101F2000BD0381E08E0F8034B9F02091BE0382178B
:101F300031F0F0E0E358FC4F90838093BD03FF91B4
:101F4000EF919F918F912F910F900FBE0F901F9047
:101F500018958091C600F3CF80E02091BE038213D4
:101F6000E8CFEDCF81E080933A03E091BD0381E0BB
:101F70008E0F8034D1F6F0CF1F920F920FB60F92D2
:101F800011248F939F93EF93FF9380917C03909103
:101F90007B038917B9F0E82FF0E0E55CFC4F9081F6
:101FA0009093C6008F5F803459F080937C03FF913B
:101FB000EF919F918F910F900FBE0F901F901895EA
:101FC00080E0F3CF8091C1008F7D8093C100EFCF7F
:101FD00080913A03882321F010923A0381E008951A
:101FE00080E00895E0917B0321E02E0F203481F002
:101FF00090917C032917E1F3F0E0E55CFC4F8083CE
:1020000020937B038091C10080628093C10008957A
:1020100020E0EECF8091BD039091BE03891B87FF26
:102020000895805C08952091BD039091BE0381E0E6
:10203000291380E0089520917B0390917C0381E037
:10204000291380E008959091BE038091BD03891704
:10205000E1F3E92FF0E0E358FC4F80819F5F90347B
:1020600009F490E09093BE030895CF93DF93CDB72A
:10207000DEB7CD5DD1090FB6F894DEBF0FBECDBF80
:102080002D9880E284B92A98229A83E084BD89EF52
:1020900087BD8BE085BD81E080936E0088E08093F2
:1020A0006C0082E080936800789480E00E948F0545
:1020B00005E514E013C0888D998D0E94D7242989E5
:1020C0003A892817390720F0EE89FF8991838083A8
:1020D000075E1F4F25E006331207F1F049E150E09B
:1020E000B801CE0101960E944C228D8980FDE3CF7C
:1020F000888D998D0E94CF24482F50E029893A89F4
:102100002417350728F3EE89FF898083075E1F4F68
:1021100025E00633120711F7809135038F3111F452
:102120000C943C1B3DE080912F01C352DF4F38835C
:10213000CD5DD0400E94340F60E070E08AE895E009
:102140000E949022439A2C983898399822242394FC
:1021500080913101C352DF4F3881CD5DD040811174
:10216000212C00E010E0A12CB12CAE0140585F4FB3
:102170003A01F0E44F2EFCE95F2EC552DF4F488351
:10218000CB5DD040C452DF4F7882CC5DD040CA01D5
:102190000196C752DF4F99838883C95DD040832F52
:1021A000C653DF4F59834883CA5CD04081115DC05C
:1021B000C853DF4F59824882C85CD04080913101BA
:1021C000281609F47CC0882309F47CC0B0E13B2EBA
:1021D000282E232D03C021110C945D1EC352DF4F06
:1021E0002883CD5DD0400E941310C352DF4F288159
:1021F000CD5DD040811101C024608091C10388234E
:1022000021F01092C103339B22600F3F3FEF130771
:1022100011F3F8948091C2039091C3037894A501BF
:10222000481B590BCA0118161906ACF2522F5160FF
:10223000352E832D8B7109F048C032FEBFCFC853B5
:10224000DF4F48805980C85CD0400E942310AE0107
:1022500049535F4FC653DF4F68817981CA5CD040D4
:102260000E94D105882309F4A3CFC953DF4F2881E9
:10227000C75CD04090E0FC013D97E834F10508F4DC
:1022800058C084ED93E09F938F930E94DB220F90C0
:102290000F90AE0149535F4FC653DF4F688179817C
:1022A000CA5CD04080E00E94D105C853DF4F5982FC
:1022B0004882C85CD04080913101281284CF312CF3
:1022C000232D8CCFA8E03A2E83CF1091000111115D
:1022D0001AC034FEECC181E08093000133FC1FC0C2
:1022E00060E081E493E00E94F10B81110C94261AC6
:1022F00000ED17E0F894A090C203B090C303789467
:10230000A00EB11E9ACF33FE96C11C3008F0E3C177
:102310001A3008F0D3C1183011F40E94A20960E00D
:1023200080E993E00E94F10B109200010FEF1FEF84
:10233000E1CFE35CFF4F0C94311F809134011816FC
:102340000CF0A7CFD12C80E090E0E6E1EE2EE4E0A7
:10235000FE2E9C01002436952795079436952795E7
:102360000794322F202D2B5C3E4F3F932F939F934A
:102370008F93FF92EF920E94DB22D3948D2D90E0F9
:1023800020913401332727FD30950F900F900F9047
:102390000F900F900F9082179307DCF27ACF809105
:1023A0003903813009F4FFC1409138036FEF620FA8
:1023B000C653DF4F88819981CA5CD0400196C352D1
:1023C000DF4F2883CD5DD0400E948808909138036C
:1023D000C352DF4F2881CD5DD04090FD2F5F91FD2E
:1023E0002F5F482F50E030E021503109421753074A
:1023F00009F460C51F928F9380E494E09F938F93BC
:102400000E94DB220F900F900F900F9042CFFF247D
:10241000FA94F20E6F2DC653DF4F88819981CA5C02
:10242000D0400196C352DF4F2883CD5DD0400E943B
:10243000BC042C98389839983C9A82E08A95F1F738
:10244000C552DF4F6880CB5DD040C653DF4F6882F6
:10245000CA5CD040C452DF4F7880CC5DD040C553B9
:10246000DF4F7882CB5CD04040E06F2DC752DF4F0A
:1024700088819981C95DD0400E948808482F50E02A
:10248000C352DF4F2881CD5DD04030E0215031096B
:102490004217530709F498C41F928F938EE294E079
:1024A0009F938F930E94DB220F900F900F900F90BD
:1024B0003C9880913903813009F0EBCE0E941E08D0
:1024C000E8CE233008F4F7C5C653DF4FA881B981A1
:1024D000CA5CD04011968C911197883409F407C5D5
:1024E000823409F4F1C584EE93E09F938F930E94A8
:1024F000DB220F900F90CDCE82E097E09F938F93D9
:102500000E94DB220F900F90C4CE81E090E0909368
:102510003301809332010E941E080E94E80F0E943E
:10252000E80F811117C020E0AE0140545F4F61E019
:10253000CE0101960E942808C054DF4F8881C05CFC
:10254000D0408111B7C0C2010197F1F70E94E80F96
:10255000882349F3109239032C98389839982D988C
:10256000109233011092320194CE3D9884E294E0AF
:102570009F938F930E94DB220F900F908ACE3A9AFE
:1025800080EA9FE00197F1F73A9880913903813012
:1025900051F4109239032D981092330110923201A8
:1025A0002C98389839988FE194E09F938F930E94EC
:1025B000DB220F900F906DCE66246A94620E09F4B0
:1025C00082C4C653DF4FA881B981CA5CD04011963E
:1025D0008C91803308F40DC1823308F4C1C08F336D
:1025E00009F007C186E395E09F938F930E94DB2259
:1025F0000F900F904ECE3D9B9AC081E30E94F20F48
:10260000339B9AC080E30E94F20F80913903805D72
:102610000E94F20F8DE00E94F20F8AE00E94F20FFA
:1026200038CE3D9A89E294E09F938F930E94DB22FB
:102630000F900F902ECE113009F452CE153009F4C0
:102640007DC0193009F04BC0339BC3C5CE018A53FE
:102650009F4F0E94040D8823F9F0CA53DF4F9881E1
:10266000C65CD04090FDDAC580911D0110E09071EC
:10267000282F2C70243009F415C6283011F40C943E
:10268000E31C222311F40C94F51C67E083E892E02C
:102690000E94F10B81110BC081E0809300010AEFD1
:1026A00010E028CE20FDE1C61B3009F40FC70FEF64
:1026B0001FEF20CE89810E94F20F31CF10922B01A3
:1026C00010928100109280002A9860E086E993E0E1
:1026D0000E94F10B29CE1C3009F41FCE20CECE0172
:1026E0008A539F4F0E94040D8823B1F2CA53DF4FD3
:1026F0002881C65CD04027FDCFCF24FFD1C01C303D
:1027000008F041C61A3008F0C2C6123009F466C695
:10271000183011F40E94A20960E086E493E00E9460
:10272000F10B82E0809300010FEF1FEFE3CD80E318
:102730000E94F20F339966CF81E365CF8091220129
:10274000882309F439C6813009F0A0C3832D837032
:1027500011F033999BC330FCA3C70EEF1FEF6DCD73
:1027600080530E948F0587EC93E09F938F930E9484
:10277000DB220F900F90C653DF4FA881B981CA5C4E
:10278000D04011968C91823409F083CD0E941B10A9
:102790008823E1F380EA9FE00197F1F780912F0110
:1027A0000E945D0F76CD0E94E80F20913703AE01A5
:1027B00040545F4F6FE7CE0101960E942808C82E53
:1027C000C054DF4FD880C05CD040DD2051F0DE0126
:1027D00011967D01F70181917F010E94F20FDA9439
:1027E000C9F798E0C91278C30E94E80F8823E9F27C
:1027F00050CDC653DF4FE881F981CA5CD040329694
:10280000982F712C01C09191892F8F7D81548A312D
:1028100010F09F3519F473946710F5CF8FEF870D83
:102820008F30A8F5E72CF12C45E5C42E44E0D42EDA
:10283000312CC653DF4F88809980CA5CD040BFEFEF
:102840008B1A9B0A08C0E9E1CE0ED11CF6E3CF1625
:10285000F5E0DF06B9F0A701B601C4010E945E22CF
:10286000892B89F749E150E0B601CE0101960E941B
:102870004C223394E9E1CE0ED11CF6E3CF16F5E0FD
:10288000DF0649F788248394381409F4BAC288EB28
:1028900093E09F938F930E94DB220F900F90F9CCCF
:1028A000812F90E0FC013297EC30F10508F0FFCE6B
:1028B000EB57FF4F0C94311F20FFF9CE61E0CE01A2
:1028C00080549F4F0E94270E882309F4E5CE67E0CD
:1028D0008DE992E00E94F10B882309F4DDCECB5301
:1028E000DF4F0881C55CD040093011F40C94911E73
:1028F00081E080931D01C054DF4F688179818A8116
:102900009B81C05CD0400E94FE2016E0CC53DF4F7C
:102910002881C45CD040121B101B41F020E030E045
:1029200040E251E40E9463201150C1F79B01AC01C9
:1029300060E070E08AE794E40E94FE1F24EE37E135
:1029400048E15BE30E948A2123E03CE544E751E44F
:102950000E94FF1F0E94F1212CEA3CE14AE750E46B
:102960000E94FE1F24EE37E148E95AEB0E946320E3
:1029700020E030E04AE754E40E948A210E94CB2004
:10298000C054DF4F688379838A839B83C05CD040C7
:10299000CB53DF4F1882C55CD04083E0CC53DF4F70
:1029A0008883C45CD04020E043E608C620FF7FCE89
:1029B00061E0CE0180549F4F0E94270E882309F4C6
:1029C0006BCECB53DF4F8881C55CD040893009F096
:1029D000EBC580911D01882309F469CE10921D0179
:1029E00068E08FE791E00E949B0C882309F454CEA5
:1029F0000FEF1FEF7FCC20FF5ACE61E0CE01805455
:102A00009F4F0E94270E882309F446CE67E08BE98A
:102A100092E00E94F10B882309F43ECE86E0FE018D
:102A2000E054FF4FDE01119601900D928A95E1F777
:102A300080911E0190911F01A0912001B091210170
:102A40000097A105B10509F495C769807A808B804C
:102A50009C80CB52DF4F88839983AA83BB83C55D5B
:102A6000D040D401C3018C599F4FAF4FBF4FCB52C1
:102A7000DF4FE880F9800A811B81C55DD0408E154B
:102A80009F05A007B10708F068C797FC48C7CB525D
:102A9000DF4FE880F9800A811B81C55DD040A80125
:102AA000970160E070E0CB0184017301110FEE0823
:102AB000FE2C8701C453DF4FE882F9820A831B830F
:102AC000CC5CD04053016401C453DF4FE880CC5C40
:102AD000D040FE2C0E2D1E2DC453DF4F2883CC5C1E
:102AE000D040C353DF4F3883CD5CD040C253DF4F5B
:102AF0004883CE5CD040C153DF4F5883CF5CD04079
:102B0000C053DF4F6883C05DD040CF52DF4F788322
:102B1000C15DD040CE52DF4F8883C25DD040CD52E0
:102B2000DF4F9883C35DD04060E070E080E090E0CC
:102B30000E94461F74016301CB52DF4F48805980C9
:102B40006A807B80C55DD0404C185D086E087F08A8
:102B5000812C912C5401C453DF4F4882CC5CD0406F
:102B6000C353DF4F5882CD5CD040C253DF4F6882E1
:102B7000CE5CD040C153DF4F7882CF5CD040C05391
:102B8000DF4F8882C05DD040CF52DF4F9882C15D59
:102B9000D040CE52DF4FA882C25DD040CD52DF4F31
:102BA000B882C35DD04052016301E12CF12C00E0FA
:102BB00010E00E94A11F86E08E8382E08D83213485
:102BC00002E430070FE040075105C0F006E013E0D3
:102BD00004C01F5F143009F49FC6CA01B9012AE07E
:102BE00030E040E050E00E94F01E213462E43607FD
:102BF0006FE04607510568F70E831D8329833A83EA
:102C00004B835C8320E040E061E6CE0101960E94A8
:102C1000F209882309F440CD0FEF1FEF6BCB30FC96
:102C200009C420FF9ACD61E0CE0180549F4F0E94DD
:102C3000270E882309F430CDCB53DF4F8881C55C44
:102C4000D040893009F4F6C3CE0101960E94DA0D16
:102C5000882309F421CD198160E08FEF91E00E9473
:102C6000F10B882309F418CD10932A0186E0FE01A8
:102C7000E054FF4FA4E2B1E001900D928A95E1F794
:102C800084E0809300010FEF1FEF34CB60E084E31A
:102C900093E00E94F10B882309F4FECCCA53DF4F66
:102CA0008881C65CD0401F928F931F923F9288E12B
:102CB00093E09F938F930E94DB220F900F900F90D1
:102CC0000F900F900F900FEF1FEF14CB20FF85C0D8
:102CD00061E0CE0180549F4F0E94270E882309F4A3
:102CE000DBCCC054DF4F88819981AA81BB81C05C55
:102CF000D040803A9648A140B1050CF053C2809173
:102D00002B01882309F46BC402E010E0F3CA20FF12
:102D1000CECC61E0CE0180549F4F0E94270E8823C5
:102D200009F4BACCC0902401D0902501E09026018E
:102D3000F09027017090280150902901C054DF4F76
:102D400088809980AA80BB80C05CD040CC53DF4F84
:102D50004880C45CD040CB53DF4F6880C55CD04016
:102D6000052D070D162D140D10170CF49DC301171A
:102D70007CF4A7019601CA01B9012AE030E040E0E5
:102D800050E00E94121F0F5F0113F5CF69017A0115
:102D90004D826E828C189D08AE08BF0889829A8287
:102DA000AB82BC8220E04AE260912A01CE0101960A
:102DB0000E94F20981117BCC60E08FE992E00E94D1
:102DC000F10B8111AECC68CC8BE394E09F938F9391
:102DD0000E94DB220F900F906BCBCE0101960E94D8
:102DE000DA0D89818B3629F48A818770813009F464
:102DF0005ECC0E94A20982E0809300010FEF1FEFDA
:102E000079CAC653DF4F88819981CA5CD040019648
:102E10008E0D9F1D671809F4BAC2FC0160E070E0D6
:102E200020E0819190ED980F9A3008F02BC4AB010F
:102E3000440F551F660F771F660F771F660F771FAA
:102E4000640F751F60537109680F711D2F5F261184
:102E5000E8CF20E089899A898617970708F402C489
:102E60008D89EE89FF8980FFF4C3718360832223FB
:102E700021F0888D998D0E94EB248EE993E09F9339
:102E80008F930E94DB220F900F9075CCCE0101969C
:102E90000E94040D81115EC18AEF92E09F938F938F
:102EA0000E94DB2281E0809300010F900F900AEFD7
:102EB00010E020CA8DE494E09F938F930E94DB2260
:102EC0000F900F90E6C98CEC93E09F938F930E9434
:102ED000DB220F900F90DDC9C110DBC982E594E0C1
:102EE0009F938F930E94DB220F900F90D2C9809105
:102EF0003903813009F0EFC112968C91833409F4C3
:102F0000EAC1843409F0EFCA2350F1F1C653DF4F10
:102F1000A881B981CA5CD04013968C9130ED380FEE
:102F20003A3060F0982F9F7D9154963068F58A333F
:102F300028F0873408F4C4C639EA380F2130D9F0B4
:102F4000C653DF4FE881F981CA5CD040848190ED9F
:102F5000980F9A3008F4A9C6282F2F7D21542630C7
:102F600050F4632E629420EF62228A3308F099C6EF
:102F7000892F382F3629632E712C812C912C6114C6
:102F800071048104910421F466246A94762C43012F
:102F90000E94E80F662DF0E86F1671048104910419
:102FA00008F06FE7C054DF4F6883C05CD0402091C9
:102FB0003703AE0140545F4FCE0101960E942808AE
:102FC000D82EC653DF4FA881B981CA5CD040119674
:102FD0008C91883409F449C0C054DF4F8881C05CAB
:102FE000D040882309F43FC0D2FE63C090E8892B0B
:102FF0000E94F20FC054DF4FC880C05CD040CC208C
:1030000091F19E012F5F3F4F7901D7018D917D0195
:103010000E94F20FCA94C9F7C054DF4F8881C05C88
:10302000D040681A710881089108B8E0DB1206C028
:1030300029F00E94E80F882309F4ACCFC653DF4F74
:10304000E881F981CA5CD0408181823409F4FCC2F4
:10305000D2FEF6C28CEE93E09F938F930E94DB2208
:103060000F900F9016C980E0DCCFC054DF4F8881ED
:10307000C05CD0408823B9F3F12CE1E0F0E0EC0F24
:10308000FD1FEF0DF11D80811F928F93AFEEB3E016
:10309000BF93AF930E94DB22F394C054DF4F88812B
:1030A000C05CD0400F900F900F900F90F81628F34F
:1030B000B8CF90E09CCF8EE094E09F938F930E94D6
:1030C000DB220F900F90E5C8C653DF4FE881F981EE
:1030D000CA5CD0408281843409F005CA80913903EA
:1030E000813009F411CFD12CE12C0E94231087FDEF
:1030F00027C0C054DF4F8883C05CD040982FC12CBC
:10310000992309F4C6C8F12C0E942310E1E0F0E0F5
:10311000EC0FFD1FEF0DF11D8083F394C054DF4FC2
:103120006881C05CD040F61678F3EE2051F1EE24B1
:10313000E3948D2D0E94F20F0E94231087FFD9CFB8
:10314000982F9F77C054DF4F9883C05CD04064E0D5
:10315000C62ED6CF60E083E392E00E94F10B882375
:1031600009F49ACE898184FF12C28091230190E0F4
:103170008E30910508F0BDC1FC01EF56FF4F0C9455
:10318000311F4C2DCE0101960E948808D82EEE24C6
:10319000E394C054DF4F8881C05CD040D812C9CFBF
:1031A000E12CC7CF80912B01882309F4ADCD68E0D5
:1031B0008EE892E00E949B0C882309F46DCA10925D
:1031C0002B0110928100109280002A9802E010E0FA
:1031D00091C867E08BE791E00E94F10B882309F426
:1031E0001AC480E496E00197F1F733992FCACE0113
:1031F0008A539F4F0E94040D882309F44DCACA5375
:10320000DF4F9881C65CD04094FD2CCA60E087E80F
:1032100092E00E94F10B811184CA3ECA67E0CE01A0
:1032200080549F4F0E94270E882309F435CA0091CD
:103230001D01CB53DF4F8881C55CD040893009F434
:103240004EC500FF40C567E171E0CE0180549F4F3D
:103250000E94EF0487FD37C510E001FF09C061E15E
:1032600071E0CE0180549F4F0E94EF0418165CF469
:1032700086E0FE01E054FF4FA1E1B1E001900D9224
:103280008A95E1F71260812F802B80931D01CA532C
:10329000DF4F9881C65CD0409071282F2C7024306D
:1032A00009F0EBC9911147C310FFEFC986E0E7E1D0
:1032B000F1E0DE01119601900D928A95E1F72FE081
:1032C0004DE26091BF03CE0101960E94F20988236E
:1032D00009F4E2C9DAC94DEF420F4230E8F0E2E802
:1032E000F0E0EC0FFD1FE40FF11D80818B3309F43A
:1032F000C6C140FD11C0C653DF4FE881F981CA5CE9
:10330000D040339680E0919120ED290F2A3070F063
:103310009F7D9154963050F086E094E09F938F9378
:103320000E94DB220F900F900C9449118F5F84173D
:1033300050F3FE01319650E016C02053B0E12B9FB0
:1033400090011124A4E8B0E0AC0FBD1FA80FB91F75
:103350008C918A3308F075C38053822B81935E5F12
:10336000541708F078C3852F90E0A3E8B0E0AC0FC5
:10337000BD1FA80FB91F2C912A33F8F2273408F487
:10338000B1C32755DBCF1C3009F4C4C9C5C98D8929
:10339000EE89FF8980FF78C0808191819F938F9310
:1033A00083EB93E09F938F930E94DB220F900F900B
:1033B0000F900F900C944911832D837011F0339B63
:1033C00065CD30FECAC981E08093220166E08CE3BE
:1033D00092E00E94F10B8111C1C05ECD20FF09C0B7
:1033E00061E0CE0180549F4F0E94270E882309F48C
:1033F000F3C067E08AE693E00E94F10B882309F4AA
:103400004BC9CE0101960E94DA0D882309F444C904
:103410008A8180FD76C4CA53DF4F8881C65CD04064
:1034200080FF5FC4CB53DF4F8881C55CD0408930BB
:1034300009F011CC0E94FF0D882309F42DC98AE000
:10344000809300010FEF1FEF0C947A1186E393E055
:103450009F938F930E94DB2282E0809300010F9064
:103460000F900FEF1FEF0C947A1167E0CE010196D9
:103470000E94270E81111EC110922B011092810013
:10348000109280002A9808C9808190E087CF10921E
:103490002B0110928100109280002A9860E087E84A
:1034A00093E00E94F10B3DC9A5019401CA01B90145
:1034B0002AE030E040E050E00E94121F1F5F10132E
:1034C000F5CF49015A017D825E8264CC30FE45C948
:1034D00010922B0110928100109280002A980FEF19
:1034E0001FEF0C947A11BCE0CC52DF4FB883C45D5F
:1034F000D040CC52DF4F4880C45DD0404092230181
:10350000042D0230E9F482E08093000185EA92E024
:103510009F938F930E94DB220F900F900FEF1FEF6E
:103520000C947A118DE0CC52DF4F8883C45DD0407B
:10353000E0CF09E0CC52DF4F0883C45DD040D9CF43
:10354000842D0E94CF0C882309F4A6CC66E080E489
:1035500092E00E94F10B81111092220104E610E02A
:103560000C947A11F2E0CC52DF4FF883C45DD04066
:10357000C0CF65E0CC52DF4F6883C45DD040B9CF87
:10358000E8E0CC52DF4FE883C45DD040B2CF8091F9
:10359000230190E0FC013197ED30F10508F078C38C
:1035A000E156FF4F0C94311F81E080931D01CB53F6
:1035B000DF4F1882C55CD04020E044E66091BF0335
:1035C000CE0180549F4F0E94F209882309F464C8F9
:1035D0000FEF1FEF0C947A118CE693E05FCC60E064
:1035E00088E992E00E94F10B882309F455C8A09164
:1035F0002C0120912D0130912E01AA2321F02115BB
:10360000310541F42A9A81E080932B0102E010E019
:103610000C947A113093890020938800B0E00E94C6
:10362000371FBB27A92F982F872F90938B0080934C
:103630008A0081E28093800081E180938100E3CF62
:103640008BE30E94F20F06CD80E00E94F20F0C94F3
:1036500049116083222309F410CC888D998D0E9432
:10366000DD240BCC83EA93E09F938F930E94DB22AF
:103670000F900F900C94491130E50C9493104CEF7F
:10368000420F37CE8F7D873509F44EC08BEA93E029
:103690009F938F930E94DB220F900F900C944911FF
:1036A0001092220166E088E392E00E94F10B811102
:1036B00055CFF2CB01E01B3009F000E0F090100193
:1036C0001091BF03EE8180911C01E81305C0FD81BC
:1036D00080911B01F81791F1F090C003CE01805446
:1036E0009F4F0E94DA0D882309F4C6CEF1FE68C30D
:1036F00093EEC054DF4F8881C05CD0401827192357
:10370000CF53DF4F9881C15CD040111103C0F9261F
:10371000F1FE64C3011156C330E09093C00300E092
:103720008093BF03182F5BC030E0862D90E0019797
:103730002817390709F0AACF21E08CCBE93061F2D4
:10374000FF2009F44BC089819A81AB81BC81209113
:10375000170130911801AC01421B530B9A012E3F07
:103760005FEF3507DCF123303105C4F59C0197FF8D
:1037700004C022273327281B390B3901882477FC02
:103780008094982C212F207E203209F41DC3212FF4
:10379000237E233409F4F5C208F403C3233A09F461
:1037A000F0C208F4F3C2223C09F4F6C2233C09F447
:1037B000E8C2213C51F021E02F0D253041F120934A
:1037C0001001109100010C9454134AE050E060E0A5
:1037D00070E064167506860697066CF730E086E0A2
:1037E000FE013196A7E1B1E001900D928A95E1F7D3
:1037F00081E080931001002309F447C0323079F151
:10380000333009F06DC08AE08093000161CE00235F
:1038100089F02091110130911201821B930B8E3F90
:103820006FEF96073CF003972CF480911601E81790
:1038300009F45AC086E0E7E1F1E0A1E1B1E00190CE
:103840000D928A95E1F71092100120E04DE3612F6F
:1038500087E191E00E94F209882309F40DCEA0913E
:103860002C0120912D0130912E01AA2321F0211548
:10387000310501F52A9A81E080932B018BE080933A
:1038800000010CE211E00C947A1120E04FE3612F6B
:10389000CE010196C352DF4F3883CD5DD0400E94E8
:1038A000F209C352DF4F3881CD5DD040882309F43F
:1038B000E3CDA4CF3093890020938800B0E00E942C
:1038C000371FBB27A92F982F872F90938B008093AA
:1038D0008A0081E28093800081E180938100CBCFD8
:1038E000109100010C94541380911501F813A2CF8C
:1038F00010921001109100010C9454139BE0CC52D3
:10390000DF4F9883C45DD040F4CDAAE0CC52DF4FA6
:10391000A883C45DD040EDCD0D5F11E05EC9C12C20
:10392000D12C760120E030E040E050E060E070E033
:1039300080E090E001C9982F937F986090931D01DB
:1039400081FD47C06FE080E691E00E949B0C8823D8
:1039500011F40C944C130C94451360E08BEC91E043
:103960000E949B0C882311F40C944C130FEF1FEF53
:103970000C947A1139812A819B818C8130931E01AC
:1039800020931F019093200180932101CB52DF4FA0
:103990003883C55DD040CA52DF4F2883C65DD04012
:1039A000C952DF4F9883C75DD040C852DF4F88832C
:1039B000C85DD040CB52DF4F688079808A809B8081
:1039C000C55DD0404EC891112FC011FD02C00C94AE
:1039D000451386E0E1E1F1E0DE01119601900D92E0
:1039E0008A95E1F72FE04BE26CCC992311F40C940B
:1039F0004513982F937F946090931D0180FD56CCC2
:103A00006FE087E691E00E949B0C882311F40C94F0
:103A10004C130C9445138EE691E09F938F930E9474
:103A2000DB220F900F90E3CB837F80931D0167E033
:103A300087E091E00E94F10B81110C9445130C94E6
:103A40004C13873408F450C08755822B81935E5FF6
:103A5000541708F488CC642F6695C054DF4F6883F0
:103A6000C05CD040C653DF4FE881F981CA5CD040CA
:103A70008281833481F4CE0101960E94BC042C988B
:103A8000389839983C9A82E08A95F1F7C054DF4F14
:103A90006881C05CD04040E0CE0101960E94880859
:103AA000C054DF4F9881C05CD040891709F444C0EE
:103AB0001F928F9384EF93E09F938F930E94DB225A
:103AC0000F900F900F900F90C653DF4FA881B981D0
:103AD000CA5CD04012968C91833411F00C94491139
:103AE0000C94581227532ACC875337CC8DE08093FF
:103AF000000182EB92E09F938F930E94DB22CE0124
:103B000001960E94DA0D0F900F90882311F40C9407
:103B10004C1389818093BF0360E08BE092E00E94A8
:103B2000F10B882311F40C944C1381E080931D0158
:103B30000FEF1FEF0C947A1181E094E09F938F9325
:103B40000E94DB220F900F90BFCF8AE0809300018C
:103B50008DEC92E09F938F930E94DB220E94FF0DD9
:103B60000F900F90882311F40C944C130FEF1FEF5C
:103B70000C947A1189E0809300018EED92E09F937E
:103B80008F930E94DB22CE0101960E94DA0D0F90E6
:103B90000F90882311F40C944C1389818093BF03F8
:103BA00060E085E192E00E94F10B882311F40C940F
:103BB0004C1310921D010FEF1FEF0C947A1188E047
:103BC00080930001CE0101960E94DA0D882311F442
:103BD0000C944C1389818093BF038A818093C00326
:103BE00060E089E292E00E94F10B882311F40C94CA
:103BF0004C1368E08FE192E00E949B0C882311F443
:103C00000C944C130FEF1FEF0C947A118CE08093FF
:103C100000018FEB92E09F938F930E94DB22CE01F5
:103C200001960E94DA0D0F900F90882311F40C94E6
:103C30004C1389818093BF038A818093C00360E025
:103C40008FE092E00E94F10B81116FCF0C944C1326
:103C500086E0809300018DEE92E09F938F930E9407
:103C6000DB2210921E0110921F011092200110926F
:103C7000210160E089E192E00E94F10B0F900F902A
:103C8000882311F40C944C130FEF1FEF0C947A114E
:103C900088E093E09F938F930E94DB220F900F9018
:103CA000FBC8873440F0875564C9632E629480EF67
:103CB0006822892F5EC987535CC9322E0C94191172
:103CC00039EC380F3BC986E0FE01E054FF4FA7E115
:103CD000B1E001900D928A95E1F711E0BECA10E0C3
:103CE000D2CA60E086E693E00E94F10B882311F4CB
:103CF0000C944C1383E08093000108E017E00C94CF
:103D00007A118981807E803699F1803E79F189E04F
:103D1000809323010E94CF0C811118C08DE493E0A1
:103D2000BDC880911D01882311F40C945713109283
:103D30001D0168E088ED91E00E949B0C882311F43E
:103D40000C944C130FEF1FEF0C947A1166E080E493
:103D500092E00E94F10B882309F31092220185E082
:103D60008093000104E610E00C947A1185E0D0CF36
:103D7000CB53DF4F8881C55CD040893069F186E044
:103D8000C7CF48EE53E060E070E023CD213A09F45C
:103D90001CCD223A09F00FCD44E650E060E070E01F
:103DA00018CD233271F330F4213209F40ECD2232D2
:103DB00099F301CD213409F408CD223469F3FBCC09
:103DC0009FEF97CC33E0A9CC412F4C7150E04D30A0
:103DD00051050CF0DCCCEFCC87E09ACF30E0A0CCE2
:103DE000A1E21A2EAA1BBB1BFD010DC0AA1FBB1FFF
:103DF000EE1FFF1FA217B307E407F50720F0A21B71
:103E0000B30BE40BF50B661F771F881F991F1A94DD
:103E100069F760957095809590959B01AC01BD0107
:103E2000CF010895052E97FB1EF400940E94291FD0
:103E300057FD07D00E94F01E07FC03D04EF40C94EF
:103E4000291F50954095309521953F4F4F4F5F4F1B
:103E5000089590958095709561957F4F8F4F9F4FF6
:103E60000895EE0FFF1F0590F491E02D0994A29F95
:103E7000B001B39FC001A39F700D811D1124911D3E
:103E8000B29F700D811D1124911D0895DF93CF9372
:103E90001F930F939A9DF02D219FF00D8B9DF00D98
:103EA0008A9DE02DF10D039FF00D029FE00DF11DA5
:103EB0004E9DE00DF11D5E9DF00D4F9DF00D7F9329
:103EC0006F93BF92AF925F934F93D5010E94371FBC
:103ED0008B01AC01D7010E94371FEB01E80FF91FDE
:103EE000D6010E94961F2F913F91D6010E94371F45
:103EF000C60FD71FE81FF91FAF91BF910E94961FF1
:103F00002F913F910E94371FC60FD71FE81FF91F3F
:103F1000D6010E94371FE60FF71F9801BE01CF019F
:103F200011240F911F91CF91DF9108950E94371FA7
:103F3000460F571FC81FD91F08F43196089568947B
:103F400001C0E8948F929F92CF93DF930E94AD1FA0
:103F5000DF91CF919F908F90089588249924F40148
:103F6000E401B0E49F93AA279A158B049C04ED0505
:103F7000FE05CF05D007A10798F4AD2FDC2FCF2F7A
:103F8000FE2FE92D982C892E982F872F762F652FBD
:103F9000542F432F322F2227B85031F7BF9127C01B
:103FA0001B2EBF91BB27220F331F441F551F661FB7
:103FB000771F881F991F881C991CEE1FFF1FCC1F9D
:103FC000DD1FAA1FBB1F8A149B04EC05FD05CE054F
:103FD000DF05A007B10748F08A189B08EC09FD0926
:103FE000CE09DF09A00BB10B21601A94E1F62EF483
:103FF0009401AF01BE01CD01000C08955058BB27BC
:10400000AA270ED04DC13ED130F043D120F031F47B
:104010009F3F11F41EF433C10EF4E095E7FB29C174
:10402000E92F4FD180F3BA1762077307840795070A
:1040300018F071F49EF567C10EF4E0950B2EBA2FBF
:10404000A02D0B01B90190010C01CA01A00111249E
:10405000FF27591B99F0593F50F4503E68F11A164A
:10406000F040A22F232F342F4427585FF3CF4695DB
:1040700037952795A795F0405395C9F77EF41F16FD
:10408000BA0B620B730B840BBAF09150A1F0FF0FC7
:10409000BB1F661F771F881FC2F70EC0BA0F621FB3
:1040A000731F841F48F4879577956795B795F795A3
:1040B0009E3F08F0B3CF9395880F08F09927EE0F35
:1040C0009795879508950CD0EBC0E3D040F0DAD0F7
:1040D00030F021F45F3F19F0CCC0511115C1CFC0B1
:1040E000F0D098F39923C9F35523B1F3951B550BE1
:1040F000BB27AA2762177307840738F09F5F5F4FBB
:10410000220F331F441FAA1FA9F333D00E2E3AF0FB
:10411000E0E830D091505040E695001CCAF729D015
:10412000FE2F27D0660F771F881FBB1F2617370764
:104130004807AB07B0E809F0BB0B802DBF01FF2794
:1041400093585F4F2AF09E3F510568F092C0DCC043
:104150005F3FECF3983EDCF3869577956795B795CE
:10416000F7959F5FC9F7880F911D9695879597F9E9
:104170000895E1E0660F771F881FBB1F6217730762
:104180008407BA0720F0621B730B840BBA0BEE1F77
:1041900088F7E095089504D06894B111B5C00895EA
:1041A00098D088F09F5790F0B92F9927B751A0F079
:1041B000D1F0660F771F881F991F1AF0BA95C9F7BB
:1041C00012C0B13081F09FD0B1E008959CC0672F3C
:1041D000782F8827B85F39F0B93FCCF3869577956B
:1041E0006795B395D9F73EF4909580957095619554
:1041F0007F4F8F4F9F4F0895E89409C097FB3EF47F
:1042000090958095709561957F4F8F4F9F4F992323
:10421000A9F0F92F96E9BB279395F69587957795A1
:104220006795B795F111F8CFFAF4BB0F11F460FF61
:104230001BC06F5F7F4F8F4F9F4F16C0882311F0B9
:1042400096E911C0772321F09EE8872F762F05C0CD
:10425000662371F096E8862F70E060E02AF09A9568
:10426000660F771F881FDAF7880F9695879597F95D
:10427000089597F99F6780E870E060E008959FEFE8
:1042800080EC089500240A941616170618060906ED
:10429000089500240A9412161306140605060895BC
:1042A000092E0394000C11F4882352F0BB0F40F444
:1042B000BF2B11F460FF04C06F5F7F4F8F4F9F4F84
:1042C000089557FD9058440F551F59F05F3F71F006
:1042D0004795880F97FB991F61F09F3F79F087956D
:1042E0000895121613061406551FF2CF4695F1DFF6
:1042F00008C0161617061806991FF1CF8695710586
:10430000610508940895E894BB2766277727CB01B9
:1043100097F908950BD0C4CFB5DF28F0BADF18F0B5
:10432000952309F0A6CFABCF1124EECFCADFA0F3BF
:10433000959FD1F3950F50E0551F629FF001729F3A
:10434000BB27F00DB11D639FAA27F00DB11DAA1F59
:10435000649F6627B00DA11D661F829F2227B00DA6
:10436000A11D621F739FB00DA11D621F839FA00D31
:10437000611D221F749F3327A00D611D231F849F81
:10438000600D211D822F762F6A2F11249F575040D8
:104390008AF0E1F088234AF0EE0FFF1FBB1F661F73
:1043A000771F881F91505040A9F79E3F510570F02C
:1043B00060CFAACF5F3FECF3983EDCF3869577950C
:1043C0006795B795F795E7959F5FC1F7FE2B880F27
:1043D000911D9695879597F9089511F40EF44FCF96
:1043E0003EC077DFD0F39923D9F3CEF39F57550B17
:1043F00087FF43D00024A0E640EA900180585695FC
:10440000979528F4805C660F771F881F20F0261789
:104410003707480730F4621B730B840B20293129BE
:104420004A2BA69517940794202531254A2758F73B
:10443000660F771F881F20F026173707480730F4CC
:10444000620B730B840B200D311D411DA09581F76C
:10445000B901842F9158880F9695879508959F3FAD
:1044600031F0915020F4879577956795B795880F2F
:10447000911D9695879597F9089591505040660F34
:10448000771F881FD2F708959111089581568A5198
:1044900008F4805285580895FB01DC0102C00590A4
:1044A0000D9241505040D8F70895FC01059000202E
:1044B000E9F7809590958E0F9F1F0895FB01DC0111
:1044C0004150504030F08D910590801919F4002032
:1044D000B9F7881B990B08956817790768F4FB01F1
:1044E000DC01E40FF51FA40FB51F02C002900E926D
:1044F00041505040D8F708950C943E26FB01DC0152
:104500008D91019080190110D9F3990B0895FC0148
:1045100001900020E9F7809590958E0F9F1F0895D8
:104520000F931F93CF93DF93EC018B01009731F42E
:104530006115710519F480E090E038C06EE070E01C
:1045400081E090E00E94F024FC010097A1F380E854
:1045500083830115110571F01387028781E8838336
:104560008091C6039091C703892B21F4F093C70370
:10457000E093C6032097C9F0D187C087838182600A
:1045800083838091C8039091C903892B71F4F093C0
:10459000C903E093C8038091CA039091CB03892B90
:1045A00021F4F093CB03E093CA03CF01DF91CF91C5
:1045B0001F910F910895A0E0B0E0E1EEF2E20C94BB
:1045C0000727FE0137966191719108EC13E0D8013D
:1045D0008D919C91DC0113962C9113972860139672
:1045E0002C93AF010E94FD22D801ED91FC91238113
:1045F000277F2383E4E00C942327ACE0B0E0E3E0E2
:10460000F3E20C94F9267C016B018A01FC0117820C
:104610001682838181FFBDC1CE0101964C01F70155
:104620009381F60193FD859193FF81916F0188231A
:1046300009F4ABC1853239F493FD859193FF8191E3
:104640006F01853229F4B70190E00E945926E7CF27
:10465000512C312C20E02032A0F48B3269F030F460
:10466000803259F0833269F420612CC08D3239F0E8
:10467000803339F4216026C02260246023C0286082
:1046800021C027FD27C030ED380F3A3078F426FFDF
:1046900006C0FAE05F9E300D1124532E13C08AE04D
:1046A000389E300D1124332E20620CC08E3221F43E
:1046B00026FD6BC1206406C08C3611F4206802C050
:1046C000883641F4F60193FD859193FF81916F0146
:1046D0008111C1CF982F9F7D9554933028F40C5FA2
:1046E0001F4FFFE3F9830DC0833631F0833771F03C
:1046F000833509F05BC022C0F801808189830E5F99
:104700001F4F44244394512C540115C03801F2E04A
:104710006F0E711CF801A080B18026FF03C0652DCB
:1047200070E002C06FEF7FEFC5012C870E944E261C
:104730002C0183012C852F77222E17C03801F2E03F
:104740006F0E711CF801A080B18026FF03C0652D9B
:1047500070E002C06FEF7FEFC5012C870E94332607
:104760002C012C852068222E830123FC1BC0832D65
:1047700090E048165906B0F4B70180E290E00E943C
:1047800059263A94F4CFF50127FC859127FE8191B3
:104790005F01B70190E00E94592631103A94F1E090
:1047A0004F1A51084114510471F7E5C0843611F0D5
:1047B000893639F5F80127FF07C060817181828150
:1047C00093810C5F1F4F08C060817181882777FD3E
:1047D0008095982F0E5F1F4F2F76B22E97FF09C03E
:1047E00090958095709561957F4F8F4F9F4F206872
:1047F000B22E2AE030E0A4010E948B26A82EA81831
:1048000044C0853729F42F7EB22E2AE030E025C03F
:10481000F22FF97FBF2E8F36C1F018F4883579F06A
:10482000B4C0803719F0883721F0AFC02F2F206136
:10483000B22EB4FE0DC08B2D8460B82E09C024FFAB
:104840000AC09F2F9660B92E06C028E030E005C050
:1048500020E130E002C020E132E0F801B7FE07C0FD
:1048600060817181828193810C5F1F4F06C06081DE
:10487000718180E090E00E5F1F4FA4010E948B26A3
:10488000A82EA818FB2DFF77BF2EB6FE0BC02B2D30
:104890002E7FA51450F4B4FE0AC0B2FC08C02B2D24
:1048A0002E7E05C07A2C2B2D03C07A2C01C0752CCE
:1048B00024FF0DC0FE01EA0DF11D8081803311F44B
:1048C000297E09C022FF06C07394739404C0822F0E
:1048D000867809F0739423FD13C020FF06C05A2C7C
:1048E000731418F4530C5718732C731468F4B7012D
:1048F00080E290E02C870E94592673942C85F5CF96
:10490000731410F4371801C0312C24FF12C0B70102
:1049100080E390E02C870E9459262C8522FF17C047
:1049200021FF03C088E590E002C088E790E0B7016E
:104930000CC0822F867859F021FD02C080E201C0B0
:104940008BE227FD8DE2B70190E00E945926A51465
:1049500038F4B70180E390E00E9459265A94F7CFCB
:10496000AA94F401EA0DF11D8081B70190E00E9444
:104970005926A110F5CF332009F451CEB70180E2BA
:1049800090E00E9459263A94F6CFF70186819781EC
:1049900002C08FEF9FEF2C96E2E10C941527F99956
:1049A000FECF92BD81BDF89A992780B50895A8E100
:1049B000B0E042E050E00C94EB26262FF999FECFB0
:1049C0001FBA92BD81BD20BD0FB6F894FA9AF99A2C
:1049D0000FBE019608950E94DD24272F0C94DE243B
:1049E0000F931F93CF93DF93869F8001879F100DB6
:1049F000969F100D1124C8010E940C25EC01009710
:104A000029F0A80160E070E00E944726CE01DF9106
:104A1000CF911F910F910895CF93DF93823091052D
:104A200010F482E090E0E091CE03F091CF0320E01B
:104A300030E0A0E0B0E0309739F140815181481773
:104A40005907B8F04817590771F48281938110977C
:104A500029F013969C938E9312972CC09093CF03BA
:104A60008093CE0327C02115310531F0421753073B
:104A700018F0A901DB0101C0EF019A01BD01DF01BE
:104A80000280F381E02DD7CF21153105F9F0281BE5
:104A9000390B2430310580F48A819B8161157105C1
:104AA00021F0FB019383828304C09093CF03809312
:104AB000CE03FE01329644C0FE01E20FF31F819344
:104AC000919322503109398328833AC02091CC0335
:104AD0003091CD03232B41F4209103013091040147
:104AE0003093CD032093CC0320910101309102013A
:104AF0002115310541F42DB73EB740910501509184
:104B00000601241B350BE091CC03F091CD03E21795
:104B1000F307A0F42E1B3F0B2817390778F0AC01E0
:104B20004E5F5F4F2417350748F04E0F5F1F5093BD
:104B3000CD034093CC038193919302C0E0E0F0E079
:104B4000CF01DF91CF910895CF93DF93009709F4C0
:104B500087C0FC01329713821282C091CE03D0919C
:104B6000CF03209781F420813181280F391F809154
:104B7000CC039091CD038217930779F5F093CD0381
:104B8000E093CC036DC0DE0120E030E0AE17BF073C
:104B900050F412964D915C9113979D01411551056A
:104BA00009F1DA01F3CFB383A28340815181840FED
:104BB000951F8A179B0771F48D919C911197840F13
:104BC000951F02969183808312968D919C911397E5
:104BD000938382832115310529F4F093CF03E09369
:104BE000CE033EC0D9011396FC93EE9312974D91DC
:104BF0005D91A40FB51FEA17FB0779F480819181BD
:104C0000840F951F0296D90111969C938E938281F1
:104C1000938113969C938E931297E0E0F0E08A8143
:104C20009B81009719F0FE01EC01F9CFCE010296AD
:104C300028813981820F931F2091CC033091CD03BD
:104C40002817390769F4309729F41092CF0310928E
:104C5000CE0302C013821282D093CD03C093CC0343
:104C6000DF91CF910895FC010590615070400110D3
:104C7000D8F7809590958E0F9F1F0895FB01DC015A
:104C800002C001900D9241505040D8F70895DC01C8
:104C900001C06D9341505040E0F70895FC01615010
:104CA000704001900110D8F7809590958E0F9F1F4E
:104CB00008950F931F93CF93DF93182F092FEB01C4
:104CC0008B8181FD03C08FEF9FEF20C082FF10C05A
:104CD0004E815F812C813D81421753077CF4E8812E
:104CE000F9819F012F5F3F4F39832883108306C0CE
:104CF000E885F985812F0995892B29F72E813F8138
:104D00002F5F3F4F3F832E83812F902FDF91CF91D5
:104D10001F910F910895FA01AA27283051F12031EF
:104D200081F1E8946F936E7F6E5F7F4F8F4F9F4F3F
:104D3000AF4FB1E03ED0B4E03CD0670F781F891F81
:104D40009A1FA11D680F791F8A1F911DA11D6A0F4F
:104D5000711D811D911DA11D20D009F468943F9102
:104D60002AE0269F11243019305D3193DEF6CF0101
:104D70000895462F4770405D4193B3E00FD0C9F7C7
:104D8000F6CF462F4F70405D4A3318F0495D31FD34
:104D90004052419302D0A9F7EACFB4E0A695979587
:104DA000879577956795BA95C9F70097610571055D
:104DB00008959B01AC010A2E0694579547953795A7
:104DC0002795BA95C9F7620F731F841F951FA01D01
:104DD0000895DC01CB01FC01F999FECF06C0F2BDBC
:104DE000E1BDF89A319600B40D9241505040B8F7A9
:104DF00008952F923F924F925F926F927F928F927F
:104E00009F92AF92BF92CF92DF92EF92FF920F9359
:104E10001F93CF93DF93CDB7DEB7CA1BDB0B0FB663
:104E2000F894DEBF0FBECDBF09942A883988488820
:104E30005F846E847D848C849B84AA84B984C884B6
:104E4000DF80EE80FD800C811B81AA81B981CE0FAD
:104E5000D11D0FB6F894DEBF0FBECDBFED01089592
:044E6000F894FFCFF4
:0A4E6400010000D0032000443100DB
:00000001FF
